S01A00004665796E6D616E426F6F746C6F61646572362E73726563FB
S214400000103C0020292C4000272C4000272C400084
S214400010272C4000272C4000272C400000000000E2
S214400020000000000000000000000000272C4000F8
S214400030272C400000000000272C4000052D4000E3
S214400040272C4000272C4000272C4000272C40001F
S214400050272C4000272C4000272C40002D2E400007
S214400060272C4000272C4000000000006914400068
S2144000707D144000272C4000272C4000272C4000B1
S214400080272C4000272C4000272C4000272C4000DF
S214400090272C4000272C4000272C4000272C4000CF
S2144000A0272C4000272C4000272C4000272C4000BF
S2144000B0272C4000272C4000272C40000000000042
S2144000C000000000000000000000000000000000EB
S2144000D000000000000000000000000000000000DB
S2144000E000000000000000000000000000000000CB
S2144000F0000000000000000000000000272C400028
S214400100F51A4000272C40000000000000000000C8
S214400110000000000000000000000000000000009A
S214400120000000000000000000000000000000008A
S214400130000000000000000000000000000000007A
S214400140000000000000000010B5054C237833B9CD
S214400150044B13B10448AFF300800123237010BD55
S2144001605009002000000000003240000C4B43B114
S2144001700C480D4910B5AFF300800C48036823B90E
S21440018010BD0A48036833B97047094B002BF7D0B7
S214400190BDE810401847064B002BF5D0184700BF67
S2144001A000000000003240005409002000324000A9
S2144001B00000000008B50A4601460248024B984730
S2144001C0002008BD000A0E40D513400010B9024A70
S2144001D0024B1A60704700BFBC314000E40B002061
S2144001E030B585B0214B1B78002B39D0042908D078
S2144001F0022933D000784D0004AB5A190B3A2DB97A
S21440020012E000684D0004AB5A190B3A002400F087
S2144002100F03092B94BF43F03003373313700009A4
S214400220013A0134AC42F2D330238DF804307823BF
S2144002308DF805300131490004AB0B440A2203F81F
S2144002400C2C04AB1D440D2305F8093C084B1B68D9
S214400250DB68023101A8984705B030BD0088D1E779
S214400260034B1B68DB689847F6E700BF6C09002025
S214400270E40B002080B400AF72B6BFF35F8F00225D
S214400280074B1A70EFF30883064A1360036883F33C
S214400290088843681847BD465DF8047B704700BF32
S2144002A020050020E80B00207047704770477047D5
S2144002B07047704710B500200A4B98470A4CA04735
S2144002C00028FCD0094B9847094A0A4BDA620A4C88
S2144002D0A0470028FCD00020084B9847084B98477A
S2144002E010BD00BF91144000B5144000D514400026
S2144002F0013FB80500040E40E11440009915400047
S214400300AD154000024A1378013BDBB213707047CC
S2144003107B090020044A1378013BDBB21370137844
S2144003200022024B1A7070477C090020700900209A
S21440033000207047002070471D4B1B7813F0800F3D
S21440034005D103F06003202B18D00020704703F03F
S2144003506003202B01D000207047154B5B78212B83
S21440036024D1134BDB88072B01D000207047104B5D
S214400370104A9A6007229A81012070470C4B5878A1
S214400380202804D0222814BF002001207047084BA4
S214400390DB88072B01D000207047054B064A1A61C0
S2144003A0044A9A6007229A810120704700207047CD
S2144003B0F40B002074090020BD0340007047000085
S2144003C008B50020104B1870104B1880104BA12217
S2144003D01A7020225A70588098800222DA8018813B
S2144003E00C4B4FF4E1321A601871587108229A711A
S2144003F0094B9847024620B103490B780133DBB2DC
S2144004000B70104608BD00BF7B090020140A002070
S214400410AC0A002074090020212E4000444B1B7873
S21440042003B1704770B584B0424B9847002841D01E
S214400430414B1C88414B9847844276D0EFF310835B
S214400440B3FA83F35B09039372B6BFF35F8F002260
S2144004503B4B1A70039D3B4B1C78E4B23A4B33F847
S2144004601430002B2DD00022384B1A80384B1B7886
S214400470002B42D1B4FA84F35B09324A137001224E
S2144004802B4B1A7025B12E4B1A70BFF35F8F62B696
S21440049026462D4B33F81430402B14BF012500253B
S2144004A034D0244B984700282BD0244B9847224BD7
S2144004B018802EE0204B1C88264B98478442BDD19E
S2144004C033E0224A1388013313801A4B984718B9F1
S2144004D01E4B1B88632B08D9164B98470028C2D062
S2144004E01A4B1B88B3F5487FBDD2F5B10122144B99
S2144004F01A70BFF35F8F62B617E0B4FA84F46409EB
S214400500BDE7144B98470C4B188002E000220A4B7C
S2144005101A800D4B33F816300F4A00920F4A02EB02
S2144005208412294681200E4CA04704B070BD00BFFF
S214400530A80A002039254000A40A0020A52540002E
S21440054020050020A00A00209C0A00206E090020FA
S214400550180A002095254000650540001C0A00202A
S2144005600129400000B1704708B5074B1B78B3FA25
S21440057083F35B09054A22F81300054B1870054BB8
S2144005801870054B984708BDA00A00209C0A00201A
S214400590180A0020A80A00201D04400008B50020C4
S2144005A0014B984708BD00BF1D0440000D4B1B780B
S2144005B0BBB90D4B1B889BB20C4A12899A4210D08D
S2144005C010B582B00846084B1B88084A1381084B72
S2144005D000930A230021074CA047024B187002B034
S2144005E010BD7047100A0020140A0020AC0A0020F4
S2144005F0590640000129400000B583B0EFF3108350
S214400600B3FA83F35B09019372B6BFF35F8F0020A2
S2144006100E4B1870019891B10D490B889BB21A4346
S2144006200A8028B10122094B1A70BFF35F8F62B669
S21440063083210020074B984703B05DF804FB04492C
S2144006400B889BB223EA02020A80EAE720050020D4
S214400650140A0020AD05400008B50020084B18706D
S21440066008490B8823F07C031B041B0C0B800649AF
S2144006700B8923F07C030B811146044B984708BD39
S214400680100A0020140A0020AC0A0020AD054000E5
S21440069008B5102201210020014B984708BD00BF35
S2144006A0F905400008B5402201210020014B98473B
S2144006B008BD00BFF905400082B0EFF31083B3FADF
S2144006C083F35B09019372B6BFF35F8F00220B4B37
S2144006D01A7001990A4B188883B20A4A1278D2B225
S2144006E0094830F8120080B2C01A29B10122034BE3
S2144006F01A70BFF35F8F62B602B0704720050020C5
S214400700080A0020040A0020000A002008B5034B0F
S2144007109847003018BF012008BD00BFB90640000A
S21440072010B584B0EFF31083B3FA83F35B090393F9
S21440073072B6BFF35F8F00221E4B1A70039B1E4A91
S21440074014781E4A12784AB9E4B21D4A118889B212
S2144007501C4A32F8142092B2914209D23BB301228D
S214400760144B1A70BFF35F8F62B6002004B010BD02
S2144007700021134A1180B4FA84F252090E490A70D5
S21440078001210E4A117023B10A4B1970BFF35F8FD7
S21440079062B600200C4B98470C4B009340230C4A03
S2144007A002EB8412012102200A4CA047DEE700201B
S2144007B0DCE700BF20050020040A00200C0A0020C9
S2144007C0080A0020000A00200D0740006D0840007F
S2144007D0800900200129400010B50024164B1C70EB
S2144007E0164B1C70164B1C70164B1C70164B1C8000
S2144007F05C80164B1C802046154B9847154B1C704A
S214400800154B1C70154B1C805C80154B1C8020467D
S214400810144B9847014640B1074A13780133DBB280
S21440082013701378DBB2012B01D0084610BD0122AD
S2144008300D4B1A70F9E700BF7C090020A80A00207B
S214400840180A0020A00A00209C0A0020A40A0020C3
S2144008501D0440000C0A0020040A0020000A002064
S214400860080A00202107400070090020E8B910B5AA
S21440087082B010460D4B1C78B4FA84F4640951B12A
S21440088089B20B4B23F8141000200A4B18700A4B01
S214400890984702B010BD094B00934023084A02EB2C
S2144008A084120121074CA047F3E77047040A002052
S2144008B0000A00200C0A0020210740006D08400076
S2144008C0800900200129400008B50020014B9847C8
S2144008D008BD00BF0D0740002DE9F04782B0254B0C
S2144008E093F80680B8F1090F14BF4FF000084FF098
S2144008F001084FF0000A204CD14657461F4D204E67
S21440090004E08B4223D31F4B1B78D3B1EFF3108305
S214400910B3FA83F35B09019372B6BFF35F8F277018
S21440092001982B889BB23278D2B2174931F8121010
S21440093089B20028E5D001202070BFF35F8F62B6F1
S214400940DFE74FF0000A504602B0BDE8F0870F4997
S21440095001EB8212D25C42EA0A0A01339BB22B8038
S21440096048460B4B9847B8F1000FECD04FEA0A2A9E
S214400970C846CBE77409002020050020080A00205E
S214400980040A002070090020000A00208009002088
S2144009902107400008B50020014B984708BD00BF1E
S2144009A0D90840002DE9F04F83B015468846244FBD
S2144009B04FF0000BDA46234EDFF8A0901AE0224AAA
S2144009C032F81340A4B2641AAC4228BF2C4601EB5E
S2144009D0831122461D4B194440461D4B9847338889
S2144009E014FA83F39BB23380A0442D1B5846194B10
S2144009F0984705B3EFF31083B3FA83F35B0901938B
S214400A0072B6BFF35F8F87F800A00198318889B22D
S214400A1099F80030DBB20C4A32F8132092B220B17B
S214400A2001203870BFF35F8F62B69142C7D30A4B3E
S214400A301B78002BDED1284603B0BDE8F08F00BF00
S214400A4020050020080A0020000A00208009002017
S214400A50612F40002107400070090020040A002052
S214400A6070B582B0284B1B78002B48D0EFF310832C
S214400A70B3FA83F35B09019372B6BFF35F8F00222C
S214400A80224B1A70019D224B1B889BB2214A12783A
S214400A90D2B2214C34F81240A4B2E41A2DB1012649
S214400AA01A4D2E70BFF35F8F62B6A14228BF214613
S214400AB00D4629B303EB82130A4618491944184BCE
S214400AC09847EFF31083B3FA83F35B09009372B64B
S214400AD0BFF35F8F00220D4B1A70009A0C4B19889B
S214400AE015FA81F5ADB21D802AB10122074B1A7066
S214400AF0BFF35F8F62B600200A4B984700E00024A1
S214400B00204602B070BD00BF7009002020050020BE
S214400B10080A0020040A0020000A0020800900205D
S214400B20612F40002107400008B50A4601460020D4
S214400B30014B984708BD00BFA509400082B0EFF3BF
S214400B401083B3FA83F35B09019372B6BFF35F8FEA
S214400B500022144B1A70019A134B1B78DBB21349D0
S214400B6031F8130040280AD0C0F140002AB10122D3
S214400B700C4B1A70BFF35F8F62B602B070470C49D9
S214400B8009780029F0D10B4909780029ECD10120D9
S214400B9008490870B3FA83F35B0903490B700020D9
S214400BA0E2E700BF20050020A00A00209C0A0020A3
S214400BB0A80A0020180A002008B5034B98470030C2
S214400BC018BF012008BD00BF3D0B400008B50020FF
S214400BD0014B984708BD00BFB90B40002DE9F041D6
S214400BE082B00C461D4B9D79092D14BF002501256A
S214400BF01B4E1C4FDFF87C8022E0EFF31083B3FAE5
S214400C0083F35B09019372B6BFF35F8F00233B709B
S214400C10019898F80030DBB2134A32F8131001F10D
S214400C20010E22F813E0114A02EB83135C5420B104
S214400C3001233B70BFF35F8F62B665B12412002577
S214400C400020B0470028D8D1094B1B78002BF7D19D
S214400C5002B0BDE8F0810120FAE700BF7409002029
S214400C60B90B4000200500209C0A00201C0A0020EA
S214400C7070090020A00A002008B501460020014B5C
S214400C80984708BDDD0B40002DE9F04F83B017466E
S214400C90224B9B79092B08BF57008846DFF894A063
S214400CA030E0EFF31083B3FA83F35B09019372B637
S214400CB0BFF35F8F00231A4A1370DDF804B0194B58
S214400CC01D78EDB2DFF8709039F81560C6F1400433
S214400CD0BC4228BF3C4606EB851322464146124896
S214400CE01844124B9847264429F81560BBF1000F6C
S214400CF005D001230A4A1370BFF35F8F62B6A04443
S214400D003F1B07D00020D0470028CAD1084B1B788D
S214400D10002BF7D1384603B0BDE8F08F74090020A9
S214400D2020050020A00A00201C0A0020612F400059
S214400D3070090020B90B40009C0A002008B50A46FE
S214400D4001460020014B984708BD00BF890C400073
S214400D50104B1B681A6853881A440378184490420C
S214400D6011D24378042B10D08B4209D00378184414
S214400D70904206D24378042B09D08B42F6D107E046
S214400D8070470020704700207047002070470020C2
S214400D90704700BFC40A002008B5034B987800F09F
S214400DA07F00024B984708BDF40B00203D254000CD
S214400DB0194B1B784BB3194B1B681B681A79824238
S214400DC025D970B4164A13605C881C44A34220D2CE
S214400DD00025012607E0124A13600FE01A781344F4
S214400DE03546A3420CD25A78042AF7D19A788242E2
S214400DF0F4D1DA788A42F1D1002DECD1012002E01C
S214400E00074A1360002070BC7047002070470020DF
S214400E1070470020F7E700BFC00A0020C40A002041
S214400E20C80A00202DE9F84304460021134B984792
S214400E30804610B94046BDE8F883114B1B685B6896
S214400E4053F82490D9F80C309847014620460B4B6F
S214400E50984780460028EDD00A4B1C6805260A4D68
S214400E600A4F31462046A847044610B18078B84716
S214400E70F7E7D9F804309847DCE700BFB10D4000EB
S214400E80C40A0020C80A0020510D4000AD2640008C
S214400E902DE9F0418046104B98470346C8B10F4BAA
S214400EA01C6805260E4D0F4F31462046A84704467F
S214400EB038B18288C1788078B84703460028F3D195
S214400EC007E0094B1B685B6853F828301B68984757
S214400ED003461846BDE8F081B10D4000C80A002020
S214400EE0510D4000B5254000C40A002008B5014B0E
S214400EF0984708BD9124400070B50D4B1B7883B1D0
S214400F000C4B1B681B681B795BB100240A4E094DCD
S214400F102046B0470134E4B22B681B681B79A342D5
S214400F20F6D80022024B1A700122044B1A8070BD7C
S214400F30C00A0020C40A0020250E4000B60A002041
S214400F4038B50D4B1B78B3B10C4B1B681A68127939
S214400F508AB10024094D06E00134E4B22B681A68D1
S214400F601279A24207D95B6853F824301B69002BDC
S214400F70F2D09847F0E738BDC00A0020C40A0020E7
S214400F80F8B5884B00229A811A615A611B7813F093
S214400F90800F14D113F0600F00F0D580814B1B7882
S214400FA003F01F03012B00F06E817E4B1B7803F08D
S214400FB01F03022B00F0C98100231846F8BD794A6A
S214400FC0D288002A00F0EA8113F0600FE6D113F0D1
S214400FD01F0306D173494978062914D0082974D0CE
S214400FE051B1012B79D0022BD8D16E4B5B78002BB8
S214400FF000F09B8000238AE1022AD6D102216A486B
S2144010006A4B9847BBE0674B5A88130A013B0E2B46
S21440101000F27A81DFE813F00F001D0037007801F8
S21440102078017801780178017801780178017801B3
S214401030780178012F005E4B186801785B4B984723
S214401040584BDA889B89934240F29980554B9A8157
S21440105095E0D2B2564B1B685B7C9342A5D9544B65
S2144010605B6853F832004188504B98474D4B9B681D
S21440107002225A70E4E74E4B9868002895D0418883
S2144010804A4B9847DCE7D2B2012A1BD0AAB1022AC3
S21440109084D1484A0F21013A4748002312F8014FAD
S2144010A020F8024B0133DBB28B42F7D349000231C2
S2144010B0424801703D4B9847C2E7042140483B4BAD
S2144010C09847BDE73F4A0921E5E7012A7FF46DAF1F
S2144010D001213D48354B984751E0324949780A2925
S2144010E081D1012A40F0CF80374B1B78002B00F08F
S2144010F0CA802C4B1C79354B1D682B681B79A34244
S21440110040F2C18000212046314B984700283FF4EA
S21440111045AF6B6853F82430DB6898472D4B187002
S21440112001211846214B984729E0022A7FF43DAF1B
S2144011301C4B1879284B9847284B18800221184694
S2144011401A4B98471BE013F01F0340F08580154A62
S2144011505278013A082A7FD8DFE812F013007E0062
S214401160D8007E0009007E007E007E0044000D4BC5
S214401170DB88002B7FF419AF194A0A4B1A6101230A
S2144011801BE7084BDB88002B7FF40FAF054B5B88D3
S214401190012B7FF40AAF044A138823F0020313801E
S2144011A0EDE700BFF40B0020B60A0020A92540005A
S2144011B06C04002010050020E2040020E00400201B
S2144011C00005002004050020C00A0020C40A0020B4
S2144011D0B10D4000BC0A002005274000B80A002098
S2144011E0990D40006F4BDB88002B7FF4DEAE6E4BD4
S2144011F0984700283FF4D2AE6A4B9A786B4B1B68F0
S2144012005B7C9A423FF7CAAE694B9847654B9B78E2
S214401210684A1370002BB2D003F10053013B634A77
S214401220526802EBC3006449086052F833301B79B9
S214401230002BA4D000242646604D0F46314620465B
S214401240A84700283FF4AAAE0134E4B23B681B68C6
S2144012501B79A342F2D892E7012B0AD0022B7FF4E7
S2144012609DAE504B5B78012B2BD0032B39D00023FF
S2144012704DE04C4A52780B2AF0D14A4BDB8813B9E2
S2144012804C4B1B7873B94B4B1B78002B00F0888077
S214401290444B1C79484B1D682B681B79A3423AD8AF
S2144012A000238AE63F4B1C795D882046444B98478E
S2144012B000283FF473AEE9B22046404B98470346B9
S2144012C025E0384BDB88002B7FF46FAE354B5B88D0
S2144012D0002B7FF46AAE334B18793A4B9847034657
S2144012E015E0304BDB88002B7FF45FAE2D4B5B88E0
S2144012F0002B7FF45AAE2B4C2079334B98472079FD
S214401300324B9847034602E0002300E00023002BC0
S2144013107FF453AE42E6002120462D4B98470028E6
S2144013203FF443AE6B6853F82450EB689847014649
S2144013302046274B984700283FF437AEAB6898477F
S214401340034600287FF439AE2FE61A4B1B780BB3C2
S214401350194B1A6813681B79F3B100241C4E164FBC
S214401360536853F82450EB68984701462046B047E8
S214401370034600283FF421AEAB6898470346002852
S2144013807FF41BAE0134E4B23A6811680979A14291
S214401390E6D812E6002310E600230EE600230CE60D
S2144013A000230AE6F40B0020792540006C04002058
S2144013B0F90E4000C00A0020C40A0020910E4000EA
S2144013C0250E4000292840007D2A40004527400041
S2144013D0B10D400008B5120202F4706241F080611F
S2144013E01143024B9847002008BD00BF250400204B
S2144013F0064BD3F8142122F44062C3F81421D3F8E4
S214401400202142F00102C3F82021704700020E401E
S214401410C06C7047806C70472DE9F04104468846A2
S2144014200E4B9847054620460D4B9847054013D02F
S2144014300C4C04F1600603E0B4420DD010345DB1AC
S21440144020684045F8D161682942F5D0E36898475E
S214401450636825EA0305EFE7BDE8F0811114400014
S21440146015144000CC0A002008B50B210148024B59
S214401470984708BD000E0E401914400008B50C21D0
S2144014800148024B984708BD00100E401914400012
S214401490012803D0054A064B1A607047044A9368F1
S2144014A043F0254343F480139360F3E7080000A518
S2144014B010140E40054B5B6913F0800F1DBF044BA4
S2144014C0986EC0F3C0100020704700BF10140E4046
S2144014D000040E400022014BDA62704700040E40C2
S2144014E0024B986E00F00400704700BF00040E40A8
S2144014F032281ED81F280CD8114B9A6901238340E6
S214401500934318D0012303FA00F00D4B18610020D6
S214401510704720380A4BD3F8082101238340934371
S2144015200BD0012303FA00F0054BC3F8000100205E
S214401530704701207047002070470020704700BF6A
S21440154000040E40322822D81F280ED8114B9A6924
S21440155001238340934301D000207047012303FAC0
S21440156000F00C4B5861002070472038094BD3F8E8
S214401570082101238340934301D000207047012374
S21440158003FA00F0034BC3F8040100207047012023
S214401590704700BF00040E40000200F4706040F048
S2144015A00100014B9863704700040E408022014BB7
S2144015B01A60704700040E40034B1A6FC0F31200C7
S2144015C010431867704700BF00040E40024B18785F
S2144015D080F00100704700BF3C0B0020034A002308
S2144015E0136153619381024A13707047F40B0020D5
S2144015F0440B002082B005220A4B1A700A4A136B2D
S2144016000193019B43F04F030193019B43F020035A
S2144016100193019B1363136B13F0200FFBD002B0B2
S214401620704700BF440B00200040044082B00322B5
S2144016300A4B1A700A4A136B0193019B43F04F03FF
S2144016400193019B43F010030193019B1363136BBB
S21440165013F0100FFBD002B0704700BF440B0020C1
S2144016600040044008B5024B1B6903B1984708BDCB
S214401670F40B002030B587B0634B1B78032B29D082
S214401680624B1B88624A9489E41AA4B2002C44D167
S214401690604A11880B449BB213805D4AD2889A42B6
S2144016A003D05D4B1B78002B2BD00422564B1A7070
S2144016B05A4A136B0193019B43F04F030193019BDE
S2144016C023F001030193019B1363136B13F0010F87
S2144016D0FBD114E0514A136B0093009B43F04F0339
S2144016E00093009B23F001030093009B1363136B4E
S2144016F013F0010FFBD14A4B98474A4B984707B027
S21440170030BD434B5B69002B5DD0984700285AD0CC
S21440171000223E4B1A803E4B9C893F2C53D90022D8
S2144017203D4B1A7040243A4B9968384B1888EFF373
S2144017301083B3FA83F35B09059372B6BFF35F8FEA
S2144017400022394B1A70059D344B1B6B13F0020F69
S2144017503DD14CB101440A46304812F8013B03657E
S214401760531ADBB2A342F8D3284B1A8814441C8081
S2144017702A4A136B0393039B43F04F030393039B45
S21440178043F010030393039B1363136B13F0100F84
S214401790FBD0224A136B0493049B43F04F030493FD
S2144017A0049B23F001030493049B1363136B13F011
S2144017B0010FFBD1002DA2D001221B4B1A70BFF3A4
S2144017C05F8F62B69BE70122134B1A70ABE72DB1D1
S2144017D00122154B1A70BFF35F8F62B604220A4B84
S2144017E01A700E4A136B0293029B43F04F03029308
S2144017F0029B23F001030293029B1363136B13F0C7
S214401800010FFBD17BE700BF440B0020400B0020BC
S214401810F40B0020420B00203D0B0020004004400B
S21440182065164000DD1540002005002038B5437C95
S21440183013F0100F16D00D46437C6FF30413437419
S21440184004687CB102F10C03074951F8233013F4C5
S214401850806F18BF42F080028168012D14BF0020BF
S2144018600120A04738BD00BF0040044030B482B0DD
S214401870411E830003F1402303F580231A6B1C6B43
S21440188012F0020F32D014F0400F08D101EB810263
S2144018902A4C04EB8202547C6FF38304547401EBAD
S2144018A08102264C04EB8202527C12F00C0F28D1A7
S2144018B01A6B0092009A42F04F020092009A22F071
S2144018C002020092009A1A631A6B12F0020FFBD1C2
S2144018D080B303282ED001EB8101184B03EB810324
S2144018E05A7C012161F383025A7423E001EB8102A2
S2144018F0124C04EB8202547C012565F38304547435
S214401900CDE71A6B0192019A42F04F020192019A7A
S21440191022F040020192019A1A631A6B12F0400FAD
S214401920FBD101EB8101054B03EB81014B7C6FF34F
S21440193083034B7402B030BC704700BF480B002096
S2144019402DE9F04383B088468146461E06EB860264
S214401950664B03EB820393F811C0CCF3810C00284E
S21440196000F0B78003280CBF01230223634540F3F1
S214401970B28006EB86035D4A02EB8303DA689B6817
S2144019809A4209D306EB8601584C04EB8101497C08
S21440199011F0400F00F0A38006EB8605534901EB9B
S2144019A085056C681444991A2B8AC3F30907B94213
S2144019B03ABF0F464FF0010E4FF0000E06EB86037F
S2144019C04A4901EB83033A44DA60072F2BD904F1E6
S2144019D008033D46820002F1402202F5802213F8B9
S2144019E0081C116513F8071C116513F8061C1165D1
S2144019F013F8051C116513F8041C116513F8031C35
S214401A00116513F8021C116513F8011C1165083D99
S214401A100833072DE3D8A7F1080323F0070308335C
S214401A201C4407F007074FB1E319314909F114097F
S214401A3014F8012B41F829209C42F9D106EB860385
S214401A402A4A02EB83030CF1010C5A7C6CF38302A6
S214401A505A74B8F1000F14D0800000F1402000F511
S214401A608020036B0193019B43F04F030193019B3E
S214401A7043F010030193019B0363036B13F0100FB5
S214401A80FBD0BEF1000F08D006EB8603174A02EBE8
S214401A9083035A7C6FF386125A7406EB8603134A06
S214401AA002EB8303DA689B689A421AD306EB8603F6
S214401AB00E4A02EB83035B7C13F0400F13D106EB18
S214401AC0860602EB8606737C43F080037374002020
S214401AD002E001234AE7012003B0BDE8F08300207E
S214401AE0FAE70120F8E70120F6E700BF480B0020A0
S214401AF0004004402DE9F04F9BB0874B984720B9F3
S214401B00864BDB6913F4807F3BD03020844B98476C
S214401B10824B9B6913F4006F04D0804BDB6913F44F
S214401B20006F37D17D4BDB6913F0010F00F0BA81AF
S214401B307A4B1B6B13F0040F35D1784B1B6B13F0AD
S214401B40010F40F0C580754B1B6B13F0020F40F041
S214401B50C280724B1B6B13F0080F00F0A3816F4AD4
S214401B60136B0093009B43F04F030093009B23F0BE
S214401B7008030093009B1363136B13F0080FFBD10D
S214401B8005E072B6BFF35F8F0022664B1A701BB03B
S214401B90BDE8F08F4FF40062604B1A62624B984784
S214401BA0624B9847F3E7624B1B78CBB95B4B1B6B9A
S214401BB0C3F30A43082B18D0584A136B0193019B72
S214401BC043F04F030193019B23F004030193019BD1
S214401BD01363136B13F0040FFBD1564B9847D6E7AD
S214401BE0554B9847554B9847E0E7554B03F108004F
S214401BF04A490A6D03F8012F8342FAD1514B984760
S214401C0098B9464A136B0293029B43F04F030293E4
S214401C10029B23F004030293029B1363136B13F09F
S214401C20040FFBD1434B9847B1E7474B93F900303D
S214401C30002B1DDB394A136B0593059B43F04F037E
S214401C400593059B23F004030593059B1363136BD1
S214401C5013F0040FFBD13C4BDB88002B35D0002320
S214401C603A4A13803A4A13800122314B1A708EE763
S214401C702A4A136B0393039B43F04F030393039B40
S214401C8043F080030393039B1363136B13F0800F9F
S214401C90FBD0224A136B0493049B43F04F030493F8
S214401CA0049B23F004030493049B1363136B13F009
S214401CB0040FFBD10023254A1380254A13800222B5
S214401CC01B4B1A70234B984761E7234B98475EE7B8
S214401CD0204B98475BE7164B1B78012B3ED0022BD8
S214401CE004D0042B02D0134B984701E0124B984780
S214401CF00A4A136B0693069B43F04F030693069BD4
S214401D0023F002030693069B1363136B13F0020F34
S214401D10FBD10A4B98473AE7CD15400000400440B7
S214401D20F114400020050020410F40001D2E4000C9
S214401D30440B0020F515400065164000DD154000B8
S214401D40F30B0020810F4000F40B0020420B0020D4
S214401D50400B0020751640002D164000934B196B23
S214401D60C1F30A41924B9B89924A15886A1893425E
S214401D70BCBF5B1B99B28E4B9868284471B1024633
S214401D808A4C236D02F8013B131ADBB28B42F8D320
S214401D900D44ADB2874B1D8040291AD0844B9D819F
S214401DA05B6913B19847002830D0804A136B08937C
S214401DB0089B43F04F030893089B23F002030893C5
S214401DC0089B1363136B13F0020FFBD17A4B9847B3
S214401DD0DDE6774BDA88794B1B882B449A42DDDD6B
S214401DE0734B9B89AB4225D0704A136B0B930B9B6E
S214401DF043F04F030B930B9B23F002030B930B9B79
S214401E001363136B13F0020FFBD1C0E66C4B98477D
S214401E10664A136B0793079B43F04F030793079B52
S214401E2023F002030793079B1363136B13F0020F11
S214401E30FBD1ACE65E4B5B6953B19847E8B15F496E
S214401E405C4A0B88108803440B8000231380CBE742
S214401E505B4B9847554A136B0993099B43F04F03D6
S214401E600993099B23F002030993099B13631346C6
S214401E701A6B12F0020FFBD189E6514B98474B4A3A
S214401E80136B0A930A9B43F04F030A930A9B23F073
S214401E9002030A930A9B136313461A6B12F0020F4F
S214401EA0FBD174E6474A0123DFF800E118467FE19C
S214401EB007EB8702434B03EB8203B3F810A0CAF349
S214401EC0090A236BC3F30A49B9F1000F00F0E38116
S214401ED03C4B03EB8203D3F808E0DA68AEEB020033
S214401EE05968484540F2CB8107EB8700354B03EBFA
S214401EF0800302EB0900D86048464FF0000B1144BF
S214401F000B46226D03F8012B5A1A8242F9D330460B
S214401F102D4B9847BBF1000F00F0C081236B13F0A8
S214401F20200F7FF434AE214B5D61264BBA00D119A9
S214401F3003EB8101CB688B60324600214046234B41
S214401F40984724E607EB87021E4B03EB8202537C3E
S214401F50C3F38101033161F383035374537C13F05D
S214401F60200F5FD013F00C0F32D0236B0C930C9BDA
S214401F7043F04F030C930C9B43F010030C930C9BC5
S214401F802363236B13F0100FFBD0236B0D930D9B35
S214401F9043F04F030D930D9B23F001030D930D9BD0
S214401FA02363236B13F0010FFBD1F0E500400440A0
S214401FB0F40B0020400B00202D164000420B002062
S214401FC0F5154000480B00206D1840002D184000C5
S214401FD0236B0E930E9B43F04F030E930E9B23F002
S214401FE001030E930E9B2363236B13F0010FFBD16B
S214401FF0236B0F930F9B43F04F030F930F9B43F0BE
S21440200020030F930F9B2363236B13F0200FFBD00B
S21440201007EB8707A34B03EB87035A7C6FF3451206
S2144020205A74B4E513F0800F38D107EB87029D4B06
S21440203003EB8203DA689B689A4241D307EB870238
S214402040984B03EB82035B7C13F04C0F38D1EFF3D5
S2144020501083B3FA83F35B09109372B6BFF35F8FB6
S2144020600022914B1A70109B904A55612BB1012269
S2144020708D4B1A70BFF35F8F62B6236B1193119B23
S21440208043F04F031193119B23F001031193119BCF
S2144020902363236B13F0010FFBD178E51423814AA9
S2144020A003FB0723597C6FF3C7115974DA689A60AB
S2144020B07E4B5D613246002140467D4B9847B4E7F3
S2144020C0002E5BD0032E59D007EB8702754B03EBEF
S2144020D082035B7C13F00C0F24D0236B1293129B6D
S2144020E043F04F031293129B43F010031293129B3C
S2144020F02363236B13F0100FFBD0236B1393139BB8
S21440210043F04F031393139B23F001031393139B46
S2144021102363236B13F0010FFBD100213046654B40
S214402120984734E501213046624B9847A0B1236B6F
S2144021301493149B43F04F031493149B23F0010312
S2144021401493149B2363236B13F0010FFBD10021E0
S2144021503046584B98471AE51423524A03FB072744
S2144021607A7C6FF3C7127A74FB68BB604F4B5D6135
S2144021703246002140464E4B9847D8E7012130462C
S2144021804C4B9847236B1593159B43F04F03159381
S214402190159B23F001031593159B2363236B13F0C4
S2144021A0010FFBD1F3E401331432042B00F08E8090
S2144021B0DEB2DEF8181000FA03F52942F3D05F1EAF
S2144021C090469C0004F1402404F58024216B11F0D5
S2144021D0420F7FF46DAE216B11F0010F7FF4B2AE6B
S2144021E0216B11F0080FDED0236B1693169B43F03D
S2144021F04F031693169B23F008031693169B2363F0
S214402200236B13F0080FFBD1236B03F4E063B3F5A5
S214402210807F3FF4BCAC236BB9E4244BDB6913F4FA
S214402220005F58D0214C4FF418532362636101225B
S214402230214B1A70214B98474FF4807323622361D9
S2144022404FF400632361A2E4184B4FF480721A6285
S2144022505A614FF400521A614FF400721A614FF4FB
S21440226080621A613020164B98470022124B1A7033
S214402270144B98478BE43046134B98474EE607EB93
S214402280870C084B03EB8C03C3F80CE00028F2D015
S2144022904FF0010B33E630460B4B9847CA453FF6A6
S2144022A03DAE74E4480B002020050020004004406A
S2144022B02D184000411940003E0B00201B2E4000C8
S2144022C045154000192E40006D1840004B4B9B6949
S2144022D013F4005FA1D1494B9B6913F4007F04D0EF
S2144022E0464BDB6913F4007F9CD1444B9B6913F447
S2144022F0806F04D0414BDB6913F4806F92D13F4B23
S2144023009B6913F4807F04D03C4BDB6913F4807FD9
S2144023109AD13A4BDB6913F4805F3FF438AC374CC4
S2144023204FF480532362364E012211463046354DD7
S214402330A8470222012106F11400A84703220121E2
S21440234006F12800A847304B9847636823F00103FE
S2144023506360636823F002036360A36843F480739A
S214402360A360A36823F07F03A360236B1893189B96
S21440237043F04F031893189B23F4074323F080033E
S2144023801893189B43F400431893189B23632246E4
S214402390136B13F4004FFBD0184A136B1993199B19
S2144023A043F04F031993199B43F400431993199B29
S2144023B01363136B13F4004FFBD0EFF31083B3FAA1
S2144023C083F35B09179372B6BFF35F8F00220F4B00
S2144023D01A70179B0121094A116123B10B4B1970E2
S2144023E0BFF35F8F62B60A4B9847044B4FF4807238
S2144023F01A614FF400621A61FFF7C9BB00400440FF
S214402400480B00202D184000F90E40002005002003
S214402410DD15400010B582B0EFF31083B3FA83F3B6
S2144024205B09019372B6BFF35F8F0022144B1A709C
S214402430019C0122134B1A703020134B9847134BC4
S2144024405A6F22F480725A675A6F42F400725A6783
S2144024504FF480721A614FF400521A614FF40072C2
S2144024601A614FF480621A614FF400621A612CB10F
S2144024700122034B1A70BFF35F8F62B602B010BDE5
S214402480200500203E0B0020F11440000040044090
S21440249030B583B0EFF31083B3FA83F35B0901934F
S2144024A072B6BFF35F8F00241A4B1C70019D1A4B07
S2144024B098473020194B9847194B9847194B50224C
S2144024C083F830234FF480325A60234616489A00E9
S2144024D0D11800EB8101497C1A4400EB820201F0DE
S2144024E083016FF3C71151740133032BEFD14FF4BF
S2144024F080200E4B984700220D4B1A700D4B984784
S2144025002DB10122034B1A70BFF35F8F62B603B042
S21440251030BD00BF20050020F1134000F1144000FC
S214402520B502400000E100E0480B0020B91540002D
S2144025303E0B002015244000002070470D4B5A6883
S21440254022F001025A609A6822F480729A6002462B
S21440255070B1986820F07F0002F07F0210439860C8
S2144025609A6842F480729A605A6842F001025A6051
S214402570704700BF00400440054B5B6813F0010FF6
S2144025801DBF034B986800F07F000020704700BFD7
S21440259000400440024B1868C0F30A00704700BF72
S2144025A00040044000207047014B98609981704776
S2144025B0F40B0020F0B583B000F00F04032C67D86E
S2144025C0A30003F1402303F580231D6B15F4004F51
S2144025D061D101F00305012D50D0251FEDB2022D2B
S2144025E034BF4FF400754025954258DB40B2661E16
S2144025F006EB86072B4D05EB870505F11007B5F86A
S21440260010E062F3090EA5F810E06A7C02F07F0243
S2144026106FF345126A74002835DB234EB56A0122F3
S21440262002FA04F42543B5623546AA6A1442FCD041
S2144026301D4DAA6A22EA0404AC621A6B0192019A02
S21440264042F04F020192019A22F4074222F08002A1
S214402650019200284FEA012202F44072B4BF42F4CD
S214402660044242F4004201991143019101991963D1
S214402670196B32EA0101FBD101200AE06CB1032C50
S214402680ABD1002005E07A786FF383027A70C4E716
S214402690002003B0F0BD0020FBE70020F9E7002053
S2144026A0F7E700BF480B00200040044000F00F0250
S2144026B0032A22D800B583B0910001F1402101F5EC
S2144026C080210B6B0193019B43F04F030193019BC9
S2144026D023F400430193019B0B630B6B13F4004FF1
S2144026E0FBD1501E00EB80000121044B03EB800021
S2144026F0034B984703B05DF804FB7047480B002037
S2144027002D18400000F00F00032815D8431E03EB99
S21440271083030A4A02EB83035B7C13F0200F09D144
S2144027200C30074B53F8203013F0280F14BF01200D
S214402730002070470120704700207047480B00205B
S2144027400040044000F00F01032960D810B483B065
S214402750EFF31083B3FA83F35B09019372B6BFF3CA
S2144027605F8F00222D4B1A70019C10F0800F25D1F0
S2144027708A0002F1402202F58022136B0093009BF0
S21440278043F04F030093009B43F020030093009BCD
S2144027901363136B13F0200FFBD0012303FA01F1F0
S2144027A01F4B1961002C36D001201C4B1870BFF30C
S2144027B05F8F62B603B05DF8044B70474B1E01F165
S2144027C00C02174850F8222012F0100F09D103EBE4
S2144027D08302144800EB8202527CC2F38102012A33
S2144027E0C6DD03EB83020F4B03EB82035A7C42F0B9
S2144027F020025A74012303FA01F1094B196144B1CE
S2144028000120064B1870BFF35F8F62B6D2E70020F8
S21440281070470120CEE70120CCE700BF200500200E
S21440282000400440480B002000F00F0003285ED80C
S21440283030B583B0441E04EB84022F4B03EB820377
S2144028405A7C6FF345125A74830003F1402303F514
S21440285080231A6B12F0200F4BD01A6B0092009A0E
S21440286042F04F020092009A22F020020092009A14
S2144028701A631A6B12F0200FFBD1204DA96A012271
S21440288002FA00F00143A96229468A6A1042FCD047
S2144028901A498A6A22EA000088621A6B0192019AF3
S2144028A042F04F020192019A22F008020192019AE8
S2144028B01A631A6B12F0080FFBD104EB84030E4A1E
S2144028C002EB83035B7C13F0100F01D1012011E073
S2144028D01146A200131901EB8303587C6FF30410D2
S2144028E05874144451F824309847012002E00020E0
S2144028F07047012003B030BD480B00200040044024
S214402900F0B583B000F00F07032F00F2A280BC00A2
S21440291004F1402404F58024256B15F4004F00F0A4
S2144029209B807D1E05EB850E504E06EB8E06767C14
S21440293016F0200F40F09280266B16F0200F40F0E5
S2144029408F80EFF31086B6FA86F67609009672B652
S214402950BFF35F8F4FF0000E454E86F800E0DDF87F
S21440296000C005EB850E414E06EB8E06767C16F0D3
S214402970100F0AD0BCF1000F74D001223C4B1A70E5
S214402980BFF35F8F62B6002064E005EB850E374EDE
S21440299006EB8E0696F811E04EF0100E86F811E023
S2144029A0BCF1000F07D04FF0010E314E86F800E024
S2144029B0BFF35F8F62B6DFF8B4C005EB8506B6009E
S2144029C00CEB060ECEF80420CEF808300022CEF8E7
S2144029D00C20089A4CF8062011B9B3FA83F149093D
S2144029E0224AAE00731902EB83035B7C61F38613C5
S2144029F0354402EB85026FF3C7135374EFF310832D
S214402A00B3FA83F35B09019372B6BFF35F8F00227C
S214402A10174B1A70019D0123BB40164A136110F0F4
S214402A20800F07D105B30120114B1870BFF35F8F9D
S214402A3062B60FE0236B13F0110FF3D10121384635
S214402A400D4B98470028EDD0002138460A4B984752
S214402A50E8E7002003B0F0BD0020FBE70020F9E7E0
S214402A600020F7E70020F5E70120F3E7480B0020B9
S214402A70200500200040044041194000F0B587B0D2
S214402A8000F00F05032D40D8EFF31083B3FA83F31D
S214402A905B09059372B6BFF35F8F00224B4B1A70EB
S214402AA0059B0124AC404A4A54612BB10122474B56
S214402AB01A70BFF35F8F62B610F0800F27D1AE005A
S214402AC006F1402606F58026336B13F0420F06D0FB
S214402AD0404F2846B847336B13F0420FF9D13C4A73
S214402AE0936A23439362936A1C42FCD0384A936AA3
S214402AF023EA04049462681E00EB80002A46012103
S214402B00354B03EB8000354B984707B0F0BDAB0024
S214402B1003F1402303F580231A6B12F0100F3AD0CE
S214402B204DB3032D27D01A6B0192019A42F04F0203
S214402B300192019A22F010020192019A1A631A6BCE
S214402B4012F0100FFBD11A6B12F0100FFBD11A6B5C
S214402B500292029A42F04F020292029A42F0100209
S214402B600292029A1A631A6B12F0100FFBD01A6B7D
S214402B7012F0100FFBD01A6B0392039A42F04F02EA
S214402B800392039A22F010020392039A1A631A6B76
S214402B9012F0100FFBD11A6B0492049A42F04F02C7
S214402BA00492049A22F001020492049A1A631A6B61
S214402BB012F0010FFBD16B1E03EB8302064B03EBB7
S214402BC082035A7C6FF383025A7488E720050020FC
S214402BD0004004406D184000480B00202D1840006F
S214402BE080230360704710230360704724230360EC
S214402BF07047C160704740697047436913F0020FE1
S214402C001DBFC1F30801C161002001207047436920
S214402C1013F0010F05D08369C3F308030B6000204F
S214402C20704701207047FEE700B583B02A4B2B4A19
S214402C309A4210D02A4B284A9A420CD2013B9B1A01
S214402C4023F0030304331344244951F8040B42F899
S214402C50040B9A42F9D1234B234A9A420AD2013BAB
S214402C609B1A23F0030304331344002142F8041B49
S214402C709342FBD11D4A22F07F011D4B9960EFF332
S214402C801083B3FA83F35B09019372B6BFF35F8F89
S214402C900021184B1970019817490B6843F47003CC
S214402CA00B60BFF34F8FBFF36F8F28B10121114BDD
S214402CB01970BFF35F8F62B602F16042B2F5203FF3
S214402CC004D20B4A936843F0005393600B4B9847EB
S214402CD00B4B9847FEE700BF000000200032400044
S214402CE0500900200C0C0020500900200000400035
S214402CF000ED00E02005002088ED00E0112F4000A8
S214402D00152D4000024A136801331360704700BF18
S214402D10840B002080B500AF4FF400422E4B5A6023
S214402D2044F204031A68B2F1FF3F17D02B4B5B689E
S214402D302B4B19682B4B994242D02A49284B196095
S214402D40294B013BFDD10021254B19604FF48043B0
S214402D50196881F3088825498B601047244B9847AB
S214402D6005210020234B9847234B1B68234AA2FB90
S214402D7003239B09013BB3F1807F25D2204A536051
S214402D80F0211A4B83F82310002393600723136027
S214402D9040221C4B1A611C4D1C4610461B4A2B7881
S214402DA09BB96063116813685B1AB3F5FA7FFAD370
S214402DB02063116813685B1AB3F5FA7FFAD3EEE71F
S214402DC00022074B1A60C9E7FEE70020104B9847E1
S214402DD0104CA047FDE700BF50140E4000140E40B4
S214402DE0FC7F02203581730720A1070000ED00E03C
S214402DF0ED0E4000B501400024050020D34D621082
S214402E0010E000E0000E0E40880B0020840B0020EF
S214402E10CD01400001000020704770477047000019
S214402E200120014B18707047880B002010B582B007
S214402E302348244B9847044610F0010F04D110F065
S214402E40020F25D102B010BD1F4B984701A91C4860
S214402E501E4B984760B914F4E07F09D11C4B984745
S214402E6090B91C4B98471C4B98471C4B9847E9E732
S214402E70134C20461A4B984720461A4B98471A4BF5
S214402E8098471A4B9847E9E70198194B9847ECE75B
S214402E90184B984750B90A4C2046174B9847022182
S214402EA02046164B9847164B9847CBE7154B984706
S214402EB0154B984701460248144B9847C2E700BF57
S214402EC000420340F72B4000AD0240000F2C40006C
S214402ED0CD0B4000A5064000B3024000AF024000C4
S214402EE0ED2B4000E72B400091064000B102400029
S214402EF0790C4000C9084000E12B4000F32B40000D
S214402F00AB024000A902400095094000FB2B400060
S214402F1070B50F4E0F4D761BB61018BF002405D067
S214402F20013455F8043B9847A642F9D10A4E0B4D5A
S214402F30761B00F053F9B61018BF002406D00134B3
S214402F4055F8043B9847A642F9D170BD70BD00BF06
S214402F50E8314000E8314000F0314000E8314000C0
S214402F60844641EA000313F003036DD1403A41D34F
S214402F7051F8043B40F8043B51F8043B40F8043B0E
S214402F8051F8043B40F8043B51F8043B40F8043BFE
S214402F9051F8043B40F8043B51F8043B40F8043BEE
S214402FA051F8043B40F8043B51F8043B40F8043BDE
S214402FB051F8043B40F8043B51F8043B40F8043BCE
S214402FC051F8043B40F8043B51F8043B40F8043BBE
S214402FD051F8043B40F8043B51F8043B40F8043BAE
S214402FE051F8043B40F8043B51F8043B40F8043B9E
S214402FF0403ABDD2303211D351F8043B40F8043B3E
S21440300051F8043B40F8043B51F8043B40F8043B7D
S21440301051F8043B40F8043B103AEDD20C3205D34D
S21440302051F8043B40F8043B043AF9D2043208D045
S214403030D2071CBF11F8013B00F8013B01D30B88B7
S21440304003806046704700BF082A13D38B078DD095
S21440305010F003038AD0C3F10403D21ADB071CBF67
S21440306011F8013B00F8013B80D331F8023B20F8D1
S214403070023B7BE7043AD9D3013A11F8013B00F80A
S214403080013BF9D20B7803704B7843708B78837092
S21440309060467047024B13B1024800F005B87047CF
S2144030A000000000B5304000002301461A4618468E
S2144030B000F01AB838B50A4C0A4D641BA4100AD062
S2144030C004F18043013B05EB8305013C55F8043988
S2144030D09847002CF9D1BDE8384000F089B800BFC9
S2144030E000324000FC3140002DE9F047254C256871
S2144030F0D5F848410646884692469946C4B3606825
S2144031001F2817DC431C76B104EB80050122C5F866
S21440311088A0D4F8881182401143022EC4F8881142
S214403120C5F808911ED00230636044F82080002025
S214403130BDE8F087144B03B34FF4C870AFF300807C
S2144031400446D0B1D5F84831002780E88800C5F855
S214403150484138460123C4F88871C4F88C71002E63
S214403160E1D0D1E7D4F88C110A43C4F88C21DAE7D1
S21440317005F5A674C5F84841C1E74FF0FF30BDE8F5
S214403180F08700BFD831400000000000322E3136B4
S214403190000000000A0D000076000000200000003D
S2144031A041756720203920323031370031393A3284
S2144031B0393A3339000000003E000000790C4000E8
S2144031C095094000C90840003D0D4000610A400096
S2144031D03D0D4000290B400028050020F8B500BFF3
S2144031E0F8BC08BC9E467047953040006D014000D4
S2144031F0F8B500BFF8BC08BC9E4670474901400081
S2144032002DE9F04182B000AF00229A4B1A607A2234
S214403210994B1A70DFF8B082984E994C33681B6908
S214403220402140469847974B1860974BC3F800801C
S214403230002323600028F1D0924DC5E0934B1B78C5
S214403240002B64D18C4B1B78532B66D0522B00F04E
S214403250D7804F2B00F0DC80482B00F0DF80572BC8
S21440326000F0E2806F2B00F0FF80682B00F02E818C
S214403270772B00F03481472B00F03A81542B00F036
S21440328046814E2B00F04C81562B40F087803368A9
S214403290DB6801217E4898473368DB6804217D4817
S2144032A098473368DB6801217B48984700232360B2
S2144032B07A4A754B1A601A462168013121601368B4
S2144032C0581C10601B78002BF6D13368DB687448B6
S2144032D098473368DB6801216F489847002323608E
S2144032E0704A694B1A601A4621680131216013689A
S2144032F0581C10601B78002BF6D13368DB686A4890
S21440330098473368DB6802216848984746E0336848
S214403310DB6802216548984794E72B682268934209
S2144033202ED95948016801310160013222609B1A4A
S2144033305F4A1268934228BF13465E4A13600021D4
S2144033405D4A1170E3B14B490246DFF86CE1DFF8A5
S21440335064C10B681068007818700B6801330B6006
S2144033601368013313602368013323609EF800001E
S2144033700130C0B28EF80000DCF800309842E8D346
S2144033802368013B2360404A1368013B13604A4B65
S2144033901B78474A11688B422BD300BF7A22364BA4
S2144033A01A700022424B1A60384B1B78002B40F0B4
S2144033B0C480354A136801331360236801332360A1
S2144033C02A689A427FF62AAF2F4B1B681B78FF2B42
S2144033D0F3D0232B3FF432AFA3F13002D2B2092A06
S2144033E000F2B180324A1168303B43EA0113136061
S2144033F0DFE732689269C91A1E4B18689047CCE7D7
S21440340033685B692A4A11681A4A10689847C5E7C4
S214403410184B1B68264A12681A70BFE7154B1B6884
S214403420234A12681A80B9E7EFF31083B3FA83F39E
S2144034305B097B6072B6BFF35F8F00221F4B1A702A
S2144034407A680C4B1B681A49096819601C4B9B68C4
S21440345013F0010FFAD0002AA0D00122174B1A70A1
S214403460BFF35F8F62B699E70121024B1868154B90
S214403470984793E7E00B0020980B0020E40B0020D1
S2144034809C0B0020900B0020940B00206C09002021
S214403490983140008C3140009C314000A1314000C2
S2144034A0A0314000AD314000AC3140009431400086
S2144034B0EC0B0020F00B00208C0B00202005002099
S2144034C0000A0E40E1014000A00B00203148324B7C
S2144034D01B681B8803600221304B98475EE72E4BE3
S2144034E01B681B682B48036004212C4B984755E704
S2144034F0284B18682A4B98472A4B1B6883F3088842
S2144035000122294B1A70BFF35F8F62B646E701224D
S214403510264B1A703368DB680221254898473DE7FA
S214403520224B1B781BB10022204B1A7036E73368BB
S214403530DB6802211E489847F5E73368DB680121BF
S2144035401C48984735E7A3F14102D2B2052A06D86F
S214403550104A1168373B43EA0113136029E7A3F189
S2144035606102D2B2052A06D80A4A1168573B43EA96
S214403570011313601DE72C2B05D00F4A1370002251
S214403580044B1A6015E7034B1968034A1160002282
S2144035901A600EE7EC0B0020E00B0020E101400033
S2144035A075024000E80B0020200500206C09002032
S2144035B094314000B8314000980B002030B482B0BF
S2144035C0049D5BB31C46036843F480330360C9B272
S2144035D041F0B441416083680193019B13F0010FB1
S2144035E0F9D14DB1214604EB85030D4C54F8045FE8
S2144035F041F8045B9942F9D1D2B242F0B4424260FB
S21440360083680193019B13F0010FF9D0036823F4FC
S21440361080330360002002B030BC70470220FAE7D7
S214403620FCFF3F000160704782B0416083680193B1
S214403630019B13F0010FF9D0019800F00E0002B084
S214403640704700BFC10340000503400039034000F7
S2144036503503400000000000D90740001503400035
S21440366031034000350340009D054000C40400205F
S214403670780400200000000080040020D8040020C9
S21440368009024300020100C03209040000010202A0
S214403690010005240010010424020205240600014E
S2144036A005240103010705830340001009040100B7
S2144036B0020A0000000705810240000007050202DA
S2144036C040000000120100020200004041233D007D
S2144036D000010102000100004404002058040020BC
S2144036E00003000000000000000000000000000092
S2144036F00000000000000000000000000000000085
S2144037000403090441544D454C20415346000000F3
S214403710434443205669727475616C20436F6D0054
S2144037200100000000127A0000000000140800208B
S2144037307C080020E4080020000000000000000094
S2144037400000000000000000000000000000000034
S2144037500000000000000000000000000000000024
S2144037600000000000000000000000000000000014
S2144037700000000000000000000000000000000004
S21440378000000000000000000000000000000000F4
S21440379000000000000000000000000000000000E4
S2144037A000000000000000000000000000000000D4
S2144037B000000000000000000000000000000000C4
S2144037C000000000000000000000000000000000B4
S2144037D001000000000000000E33CDAB34126DE651
S2144037E0ECDE05000B0000000000000000000000BA
S2144037F00000000000000000000000000000000084
S2144038000000000000000000000000000000000073
S2144038100000000000000000000000000000000063
S2144038200000000000000000000000000000000053
S804402C2966
